:060BD200012801012B01C6
:060AAC008D148F828E8381
:100AB200E4751801F517F516F515AF141514EF6066
:100AC2001CAB18AA17A916A815AF82AE83E4FCFDC9
:100AD2001203518F188E178D168C1580DDAF18AE4C
:050AE20017AD16AC1574
:010AE70022EC
:10048D00120BA2120BE9120935EFFD7C006404700A
:10049D00050529532901ED64054C7005052C532CD8
:1004AD0001ED64064C70050528532801ED64074CD9
:1004BD007005052B532B01E529600302057BC2A9AD
:1004CD00E52A6010E4F52A7F0312099E8F138E1220
:1004DD008D118C10E4FFFE7DC87C42AB13AA12A9CE
:1004ED0011A81012001E12027B8E0A8F0B7D0D7F3C
:1004FD00011208BCAE0AAF0B7C007D641202FC7CBD
:10050D00007D0A1202FC7F061208BC7D0B7F0612CD
:10051D0008BCAE0AAF0B7C007D0A1202FC7C007D8C
:10052D000A1202FC7F071208BCAE0AAF0B7C007DDD
:10053D000A1202FC7F081208BC7D0A7F021208BC59
:10054D007D0A7F031208BC7D0A7F041208BC7D0A58
:10055D007F051208BCE52C600AAF13AE12AD11ACCD
:10056D001080087F007E007D007C40120A64E52922
:10057D0064016003020660D2A9120B1D8F0F8E0E4F
:10058D008D0D8C0C7D0E7F011208BC7D0A7F021231
:10059D0008BC7D0C7F061208BC750801C3E50894E4
:1005AD0007748094805038E50814FD7F0A7E001290
:1005BD000AACA804A905AA06AB077FA07E867D011B
:1005CD007C001203DCA804A905AA06AB07AF0FAE89
:1005DD000EAD0DAC0C1203DCEF7004050880BDE50B
:1005ED00082402F509D3E5099408748094805048D5
:1005FD00E50924FDFD7F0A7E00120AACA804A905B9
:10060D00AA06AB077FA07E867D017C001203DCA8C5
:10061D0004A905AA06AB07AF0FAE0EAD0DAC0C12BB
:10062D0003DCE47B0AFAF9F81203DCAF03AD07AF84
:10063D00091208BC050980ADE50804F509D3E509E3
:10064D00940274809480400B7D0AAF091208BC158A
:10065D000980EAE5287003020718E529705B7580AB
:10066D00FF53A01F43A080C280D281FFFE7DC07CBE
:10067D003FAB13AA12A911A8101201C44028E4FF20
:10068D00FE7D207C40AB13AA12A911A8101201C443
:10069D004018E4FFFE7D607C40AB13AA12A911A89F
:1006AD00101201C45004D2828002C282E52C600473
:1006BD00C2848002D28453A01FE529640160030225
:1006CD0004937580FF53A01F43A080D280C2817F09
:1006DD00E87E03FDFCAB0FAA0EA90DA80CC31204F6
:1006ED007C401CE47F887E13FDFCA80C12047C402A
:1006FD0012E47F107E27FDFCA80C12047C5004D25E
:10070D00838002C28353A01F0204937580FF53A000
:0A071D001F43A08053A01F020493A5
:03000B00020B6B7A
:100B6B00C0E0C0D0E5352401F535E43534F534E487
:0E0B7B003533F533E43532F532D0D0D0E032E8
:03001B0002083B9D
:10083B00C0E0C0F0C083C082C0D075D000C000C083
:0D084B0001C002C003C004C005C006C00704
:100858000525E525700205240527E52770020526EC
:10086800E52520E00CE52B60051207B38003120A8A
:1008780006C3E52594C8E52494004009752400754D
:100888002500752A01C3E52794E8E5269403400965
:0908980075260075270075310179
:1008A100D007D006D005D004D003D002D001D000AB
:0B08B100D0D0D082D083D0F0D0E03255
:10093500E4F514D2B0D2B1D2B2D2B320B0137F0F46
:10094500FE120B8930B0FD7F0F7E00120B897514E6
:100955000720B1147F0F7E00120B8930B1FD7F0F88
:100965007E00120B8975140620B2147F0F7E0012CB
:100975000B8930B2FD7F0F7E00120B89751405209F
:10098500B3147F0F7E00120B8930B3FD7F0F7E00FD
:08099500120B89751404AF1464
:01099D002237
:0A0B8900EF1FAC0670011E4C600E59
:0C0B930075150C7516A9D516FDD515FAC0
:030B9F0080E822C9
:0F0C1000C0F9A4B0999282F88090FF7F7FC18EC7
:0A0BD800081B0A0A0A0A0A0A0A0AA0
:1008BC00EDFB7A00640B70038F2322EB640C4A70FF
:1008CC0003F52322EFFB7A0064017006741A2FF8EB
:1008DC00A605EB64024A7006741A2FF8A605EF649D
:1008EC00037006741A2FF8A605EFFB7A00640470E7
:1008FC0006741A2FF8A605EB64054A7006741A2FB5
:10090C00F8A605EF64067006741A2FF8A605EFFB1F
:10091C007A0064077006741A2FF8A605EB64084A6F
:09092C007006741A2FF8A60522CA
:1007B30053190753A01FE4F58043A0C0AF19FEEF00
:1007C3007002D280EF64014E7002D281EF64024E58
:1007D3007002D282EF64034E7002D283EF64044E40
:1007E3007002D284EF64054E7002D285EF64064E28
:1007F3007002D286EF64074E7002D28753A01F4364
:10080300A0E0EF2401FFE43EFE7C00EFB52314ECEF
:10081300B50610741B2519F8E6900C1093547FF558
:1008230080800C741B2519F8E6900C1093F5805307
:07083300A01F7580FF0519ED
:01083A00229B
:100A0600531A0753A01FE4F58043A0C0AF1AFEEFA8
:100A16007002D280EF64014E7002D281EF64024E02
:100A26007002D282EF64034E7002D283EF64044EEA
:100A36007002D284EF64054E7002D285EF64064ED2
:100A46007002D286EF64074E7002D28753A01F430E
:0D0A5600A0E07580FF53A01F7580FF051AFA
:010A63002270
:100BA200538E7F5389F0438904758AFF758CFFC287
:080BB2008DD28CC2A9D2AF2242
:100BE900538EBF53890F758B18758DFCC28FD28EAA
:050BF900D2ABD2AF22D7
:10099E00EFFD7C007002F514ED64014C70037514CC
:1009AE0001ED64024C7003751402ED64034C700388
:1009BE00751403120C1F7F90120AE8120BFEAF146F
:1009CE00120AE8120BFE120C1F7F91120AE8120B8C
:1009DE00FE120B458F157F01120BBA120C2EAC15A1
:1009EE00E4120247E4FBFA797F7843120127E4FB15
:0809FE00FA79A0784002001E06
:080A64008F178E168D158C14FE
:100A6C00E4FBFA79A07840120127E4FBFA797F784D
:100A7C004312001E12027B8F18120C1F7F90120A59
:100A8C00E8120BFE7F40120AE8120BFEAF17AE16EF
:100A9C00AD15AC1412027B120AE8120BFE020C2EDE
:04000E00D2A07F14E9
:0800120000AE071FEE70F92299
:0F0C1F00D2A112000EC2A17F14120012C2A02295
:0C0C2E00C2A112000ED2A17F140200121D
:100BBA00C2A0EF24FF92A17F1412001212000EC2EB
:080BCA00A0D2A17F1402001269
:100BFE0012000EA2A1E433FDC2A07F14120012AFA8
:010C0E0005E0
:010C0F0022C2
:020AE800AD0758
:100AEA00E4FCECC39408748094805024C2A07F1460
:100AFA00120012ED30E704D2A18002C2A17F1412C3
:100B0A000012D2A0ED25E0FD7F141200120C80D253
:020B1A00C2A077
:010B1C0022B6
:100B4500E4FCECC3940874809480501712000EEDF9
:100B550025E0FD30A103430501C2A07F1412001258
:050B65000C80DFAF056C
:010B6A002268
:060BE200042D00000005D7
:100B1D00E531601BE4F531C28C85353085342F8588
:100B2D00332E85322DF535F534F533F532D28CAFC4
:070B3D0030AE2FAD2EAC2DF0
:010B4400228E
:10001E00EC4D6011E8497017ED33EC3304600DE4DC
:10002E00FCFFFEFD22E933E8330470F80202E7120A
:10003E0002B258046009E4CC24815006285009020B
:10004E0002F12840030202EEC0E0EB4A7044B98090
:10005E0006D0E0FB0202DDEF4E701CBD8008EBFF08
:10006E00EAFEE9FD80EBE98DF0A4FEE5F002010762
:10007E00E9CDF9EAFEEBFFEF89F0A4FCE5F0CE89BD
:10008E00F0A42EFFE435F0CD89F0A42DFEE435F07A
:10009E008067EF4E7005BD80D780C3EF8BF0A4ACA8
:1000AE00F0EE8BF0A42CFCE435F0F8EF8AF0A42CE3
:1000BE00E5F038FCE433CB8DF0A42CFCE5F03BF8F6
:1000CE00EE8AF0A42CFCE5F038F8E433CF89F0A4E6
:1000DE002CFCE5F038CF3400CE89F0A42FFFE5F0EC
:1000EE003EFEE433C98DF0A42EFEE5F039CD8AF044
:1000FE00A42FFFE5F03EFEE43DFD33D0E0FB5007BC
:10010E000BBB000F0202F1EC2CFCEF33FFEE33FEC3
:06011E00ED33FD0202C9F1
:100124000202F1EC5D046005E8590470030202E781
:100134001202B2580460F6EC4860F2EC7004FDFE62
:10014400FF22C860DB2481C85009C39860025006AE
:100154000202EE9850CAF582E9294B4A7005AB8237
:100164000202DD75F0007C1A7880C3EF9BEE9AEDF5
:1001740099400DC3EF9BFFEE9AFEED99FDE842F026
:10018400DC23ACF0D0E0FFD0E0FED0E0FDAB822079
:10019400E7101BEB60BAEC2CFCEF33FFEE33FEED03
:1001A40033FD0202C9E803F830E705C0F075F0003A
:1001B400EF2FFFEE33FEED33FD40B830E7C280AAE7
:1001C40074F8CC6480CCC86480C8F58204604FC3E2
:1001D400EB9FF5F0EA9E42F0E99D42F0E89C45F081
:1001E400603C501DE5825FFFE582D313CB5BCBF40B
:1001F4002B5582FB50280ABA002409B90020088034
:100204001DE5825BFBE582D313CF5FCFF4C3132FCD
:100214005582FF50090EBE00050DBD00010CC3EB55
:100224009FF5F0EA9E42F0E99D42F0E89C45F060BB
:0902340007CC4820E701B3EC22DD
:10023D0075F020800E75F010800575F0087D007E3C
:10024D00007F003392D530D50312046EEC3340108D
:10025D00EF33FFEE33FEED33FDEC33FCD5F0ED2245
:0E026D00E5F0247EA2D513CC92E7CDCEFF2281
:10027B00EDD2E7CD33EC3392D524814006E4FFFE7B
:10028B00FDFC22FCE4CFCECDCC24E0501174FF80DA
:10029B00EDC3CC13CCCD13CDCE13CECF13CF047077
:0702AB00F030D5DE02046E05
:1002B200E9D2E7C933E833F892D5EDD2E7CD33EC92
:0702C20033FC5002B2D5220B
:1002C900EC30E7100FBF000C0EBE00080DBD000496
:1002D9000BEB6014A2D5EB13FCED92E7FD2274FF42
:1002E900FCFDFEFF22E480F8A2D574FF13FC7D809B
:0302F900E480EFAF
:03000000020727CD
:0C072700787FE4F6D8FD75813502076E7E
:1002FC00BC000BBE0029EF8DF084FFADF022E4CCE6
:10030C00F875F008EF2FFFEE33FEEC33FCEE9DECAE
:10031C00984005FCEE9DFE0FD5F0E9E4CEFD22EDF4
:10032C00F8F5F0EE8420D21CFEADF075F008EF2F3E
:10033C00FFED33FD4007985006D5F0F222C398FD2F
:05034C000FD5F0EA22CC
:10035100E88FF0A4CC8BF0A42CFCE98EF0A42CFC4B
:100361008AF0EDA42CFCEA8EF0A4CDA8F08BF0A4C9
:100371002DCC3825F0FDE98FF0A42CCD35F0FCEB28
:100381008EF0A4FEA9F0EB8FF0A4CFC5F02ECD39ED
:0F039100FEE43CFCEAA42DCE35F0FDE43CFC225A
:1003A00075F008758200EF2FFFEE33FECD33CDCC14
:1003B00033CCC58233C5829BED9AEC99E582984097
:1003C0000CF582EE9BFEED9AFDEC99FC0FD5F0D674
:1003D000E4CEFBE4CDFAE4CCF9A88222B800C1B99E
:1003E0000059BA002DEC8BF084CFCECDFCE5F0CBDC
:1003F000F97818EF2FFFEE33FEED33FDEC33FCEB15
:1004000033FB10D703994004EB99FB0FD8E5E4F9CF
:10041000FA227818EF2FFFEE33FEED33FDEC33FCBC
:10042000C933C910D7059BE99A4007EC9BFCE99AB0
:10043000F90FD8E0E4C9FAE4CCFB2275F010EF2FF5
:10044000FFEE33FEED33FDCC33CCC833C810D707F5
:100450009BEC9AE899400AED9BFDEC9AFCE899F830
:0E0460000FD5F0DAE4CDFBE4CCFAE4C8F922C3
:0E046E00C3E49FFFE49EFEE49DFDE49CFC229F
:10047C00EB9FF5F0EA9E42F0E99D42F0E89C45F0D6
:01048C00224D
:1007330002048DE493A3F8E493A34003F68001F24B
:1007430008DFF48029E493A3F85407240CC8C333C7
:10075300C4540F4420C8834004F456800146F6DF96
:10076300E4800B0102040810204080900BD2E47E49
:10077300019360BCA3FF543F30E509541FFEE4938B
:10078300A360010ECF54C025E060A840B8E493A352
:10079300FAE493A3F8E493A3C8C582C8CAC583CA7D
:1007A300F0A3C8C582C8CAC583CADFE9DEE780BE35
:010BE800000C
:00000001FF
